:060000000A128A11142906
:10000800F000030EF1000B1810200B191E20710EC2
:100018008300F00E700E09000313831206181728C8
:100028000530A6071C2806191C280530A6021C281E
:100038000B100800260881000B112416A60888005A
:020048000800AE
:100200008A010A1482073F3406345B344F34663463
:100210006D347D3407347F346F3477347C34393433
:100220005E347934713476341B212F213A214221F6
:100230004B215021182903178316880189010313C4
:100240008316850187018801890106140615861623
:1002500086171514151595169517811308000F1795
:100260008F160F160F1481120112811101158110C2
:10027000011408008B178B168B151614161596167D
:1002800096170800031383128501870188018901ED
:100290000301A41608002414A4102411A4110800BA
:1002A000241E080024185A21A41864212419662148
:1002B00024120800A50A2508803C031C6229FF308F
:1002C0008500080085010800850A0800A41E702921
:1002D000850A050A03196E2985000800A412080082
:0E02E00085030319752985030800A41608007C
:04400E00D420FF3F7C
:00000001FF
