:060000000A128A11142906
:10000800F000030EF1000B1810200B191E20710EC2
:100018008300F00E700E09000313831206181728C8
:100028000530A6071C2806191C280530A6021C281E
:100038000B100800260881000B112416A60888005A
:020048000800AE
:100200008A010A1482073F3406345B344F34663463
:100210006D347D3407347F346F3477347C34393433
:100220005E347934713476341B212F213A214221F6
:100230004A214F21182903178316880189010313C6
:100240008316850187018801890106140615861623
:1002500086171514151595169517811308000F1795
:100260008F160F160F1481120112811101158110C2
:10027000011408008B178B168B151614161596167D
:1002800096170800031383128501870188018901ED
:10029000030108002410A4102415A4110800241E32
:1002A000080024185921A418632124196521241257
:1002B0000800A50A2508803C031C6129FF30850041
:1002C000080085010800850A0800A412A50A25086F
:1002D0007F3C0318A416A41A7029850A0800850318
:0202E000080014
:04400E00D420FF3F7C
:00000001FF
