:060000000A128A11142906
:10000800F000030EF1000B1812200B1927200C1812
:100018002C20710E8300F00E700E0900031383125A
:10002800061819280A30A407252806191E280A3098
:10003800A4022528861B2428A20A8501A101A0164E
:1000480025280B100800D93081000B11AD0A0800D3
:0E00580023088E0024088F000C1020160800CC
:100200008A010A1482073F3406345B344F34663463
:100210006D347D3407347F346F3477347C34393433
:100220005E347934713476341F213A2148215321C8
:1002300040215C216E219721E021ED21192903172E
:1002400083168801890103138316850187018801BC
:1002500089010614061506160617861715141515B6
:10026000151615179517811308000F178F120F1603
:100270000F14080081128111011581140114080066
:10028000901610161014FF30A400FE30A3000800D2
:100290008B170B178B168B150C14161416151616B8
:1002A000161796170800031383128501870188012A
:1002B00089010301A0160800A218662922186329E3
:1002C000A011201408002010A014080022186B2987
:1002D000A010201508002011A0150800201E0800FD
:1002E00020187A21A018842120198621A0198421A0
:1002F00020120800A10A2108803C031C8229FF303B
:100300008500080085010800850A0800A01E9029C4
:10031000850A050A03198E2985000800A012080025
:1003200085030319952985030800A01608000F0806
:10033000AE00AF010830B0000310AE0DAF0D0A30B3
:100340002F02031CA429AF00B00B9D292F08A50084
:10035000AE0D2E08AE00AF010830B0000310AE0D98
:10036000AF0D0A302F02031CB629AF00B00BAF2926
:100370002F08A600AE0D2E08AE00AF010830B00069
:100380000310AE0DAF0D0A302F02031CC829AF00B9
:10039000B00BC1292F08A700AE0D2E08AE00AF018B
:1003A0000830B0000310AE0DAF0D0A302F02031C51
:1003B000DA29AF00B00BD3292F08A800AE0D080032
:1003C00025080021A90026080021AA0027080021ED
:1003D000AB0028080021AC000800AD18FB292D183F
:1003E000F6298811290887000814080008102A082F
:1003F0008700881408002D18022A88102B0887000F
:0E0400000815080008112C0887008815080050
:04400E00D420FF3F7C
:00000001FF
