:060000000A128A11142906
:10000800F000030EF1000B1810200B192420710EBC
:100018008300F00E700E09000313831206181728C8
:100028000530A307222806191C280530A302222818
:10003800861B2228A20A8501A01622280B10080078
:0A004800230881000B1120160800A8
:100200008A010A1482073F3406345B344F34663463
:100210006D347D3407347F346F3477347C34393433
:100220005E347934713476341E2134213F214821E3
:10023000512163218C21D521E2211829031783162E
:1002400088018901031383168501870188018901CB
:100250000614061506160617861715141515151615
:1002600015179517811308000F178F160F160F1407
:1002700081120112811101158110011408008B17E0
:100280008B168B15161416151616161796170800CA
:100290000313831285018701880189010301A016D8
:1002A0000800A2185B2922185829A0112014080060
:1002B0002010A014080022186029A01020150800A2
:1002C0002011A0150800201E080020186F21A0187A
:1002D000792120197B21A019792120120800A10A77
:1002E0002108803C031C7729FF3085000800850128
:1002F0000800850A0800A01E8529850A050A031939
:10030000832985000800A0120800850303198A29A3
:1003100085030800A01608002308AD00AE010830D0
:10032000AF000310AD0DAE0D0A302E02031C99294B
:10033000AE00AF0B92292E08A400AD0D2D08AD0024
:10034000AE010830AF000310AD0DAE0D0A302E0225
:10035000031CAB29AE00AF0BA4292E08A500AD0DE0
:100360002D08AD00AE010830AF000310AD0DAE0D8D
:100370000A302E02031CBD29AE00AF0BB6292E0891
:10038000A600AD0D2D08AD00AE010830AF00031082
:10039000AD0DAE0D0A302E02031CCF29AE00AF0BFF
:1003A000C8292E08A700AD0D080024080021A800C8
:1003B00025080021A90026080021AA0027080021FD
:1003C000AB000800AC18F0292C18EB29881128087C
:1003D00087000814080008102908870088140800FE
:1003E0002C18F72988102A0887000815080008111A
:0803F0002B08870088150800A6
:04400E00D420FF3F7C
:00000001FF
