:060000000A128A11002B18
:10000800F000030EF1000B1812200B1927200C1812
:100018002C20710E8300F00E700E0900031383125A
:10002800061819280A30A407252806191E280A3098
:10003800A4022528861B2528A20A8501A101A0164D
:1000480025280B1008003D3081000B11AD0A08006F
:0E005800F9308F00DF308E000C1020160800EB
:100200008A010A1482073F3406345B344F34663463
:0A0210006D347D3407347F346F3401
:1003FE00820780348334863489348D349034933438
:10040E00963499349C349F34A234A534A834AB343A
:10041E00AE34B134B434B734BA34BC34BF34C2346D
:10042E00C434C734CA34CC34CF34D134D434D634B3
:10043E00D834DA34DD34DF34E134E334E534E73410
:10044E00E934EA34EC34EE34EF34F134F234F3348C
:10045E00F534F634F734F834F934FA34FB34FC342A
:10046E00FD34FD34FE34FE34FF34FF34FF34FF34EC
:10047E00FF34FF34FF34FF34FF34FF34FE34FE34D8
:10048E00FD34FD34FC34FB34FB34FA34F934F834E7
:10049E00F734F534F434F334F134F034EE34ED341F
:1004AE00EB34E934E834E634E434E234E034DE3478
:1004BE00DC34D934D734D534D234D034CD34CB34F3
:1004CE00C834C634C334C034BE34BB34B834B53487
:1004DE00B234B034AD34AA34A734A434A1349E342B
:1004EE009B349734943491348E348B3488348534E1
:1004FE0082347E347B347834753472346F346C3499
:10050E006934653462345F345C3459345634533450
:10051E0050344E344B3448344534423440343D34F8
:10052E003A3438343534333430342E342B34293491
:10053E0027342434223420341E341C341A34183414
:10054E00173415341334123410340F340D340C3474
:10055E000B340934083407340634053405340434B6
:10056E0003340334023402340134013401340134CF
:10057E0001340134013401340134013402340234C3
:10058E000334033404340534063407340834093490
:10059E000A340B340D340E340F3411341234143437
:1005AE001634173419341B341D341F3421342334BC
:1005BE00263428342A342C342F343134343436341F
:1005CE0039343C343E3441344434463449344C346A
:1005DE004F345234553458345B345E3461346434A1
:1005EE0067346A346D347034733477347A347D34CE
:1005FE0080340C2327233523222340232D234C2301
:10060E005E238E23D723E423062B0317831688013C
:10061E008901031383168501870188018901061458
:10062E000615061606178617151415151516151721
:10063E009517811308000F178F160F160F14080049
:10064E0081128111011581140114080090121012EB
:10065E001014F9308F00DF308E0008008B170B1747
:10066E008B168B150C1416141615161616179617C0
:10067E000800031383128501870188018901A001F7
:10068E00A101A2010301A0160800A218562B2218E0
:10069E00532BA011201408002010A01408002218BB
:1006AE005B2BA010201508002011A0150800201E9D
:1006BE00080020186A23A018742320197623A01985
:1006CE00872320120800A10A2108803C031C722BEC
:1006DE00FF308500080085010800850A0800A01E6D
:1006EE00802B850A050A03197E2B85000800A012AF
:1006FE00080085030319852B85030800A016080042
:10070E008A018A142108FF218500A10A08000F081A
:10071E00AE00AF010830B0000310AE0DAF0D0A30C1
:10072E002F02031C9B2BAF00B00B942B2F08A500A0
:10073E00AE0D2E08AE00AF010830B0000310AE0DA6
:10074E00AF0D0A302F02031CAD2BAF00B00BA62B42
:10075E002F08A600AE0D2E08AE00AF010830B00077
:10076E000310AE0DAF0D0A302F02031CBF2BAF00CE
:10077E00B00BB82B2F08A700AE0D2E08AE00AF01A0
:10078E000830B0000310AE0DAF0D0A302F02031C5F
:10079E00D12BAF00B00BCA2B2F08A800AE0D08004E
:1007AE0025080021A90026080021AA0027080021FB
:1007BE00AB0028080021AC000800AD18F22B2D1854
:1007CE00ED2B8811290887000814080008102A0844
:1007DE008700881408002D18F92B88102B08870025
:0E07EE000815080008112C088700881508005F
:04400E00D420FF3F7C
:00000001FF
