:060000000A128A11AE2B6A
:10000800F000030EF100031383120B1814200B19D0
:1000180037200C183C20710E8300F00E700E09007A
:10002800B32406181928A40A352806191D28A4037C
:100038003528861B2428A20A8501A101A016352887
:10004800061A2D280130A300201709148910091158
:100058003528061B35281430A300201309108914ED
:1000680009150B100800963081000B11B10A080021
:0E00780025088E0026088F000C1020160800A8
:1002000082073F3406345B344F3466346D347D34BA
:1002100007347F346F348207E134F034F534F83436
:10022000F934FA34FB34FC34FC34FC34FD34FE3451
:10023000FE34FE34FF34FF34FF34FF34FF34FF3428
:10024000FF34FF34FF34FF34FF34FF34FF34FF3416
:10025000FF34FF34FF34FF34FF34FF34FF34FF3406
:10026000FF34FF34FF34FF34FF34FF34FF34FF34F6
:10027000FF34FF34FF34FF34FF34FF34FF34FF34E6
:10028000FF34FE34FE34FF34FF34FF34FF34FF34D8
:10029000FF34FF34FF34FF34FF34FF34FF34FF34C6
:1002A000FF34FF34FF34FF34FF34FF34FF34FF34B6
:1002B000FF34FF34FF34FF34FF34FF34FF34FF34A6
:1002C000FF34FF3482075C34AE34C9345734DF3432
:1002D000E4349F342B349834EF34F5347734C63417
:1002E000FA341F343B345134633471347D348734F1
:1002F0008F3497349D34A334A834AD34B134B8343A
:10030000BE34C334C734CB34CE34D134D434D634F1
:10031000D834DA34DC34DD34DF34E034E334E5344B
:10032000E734E934EB34EC34ED34EE34EF34F034CC
:10033000E234FA340E341F342E343B344734513413
:100340005A3463347D348F349D34A834B134BA3494
:10035000C134C634CB34D334D834DD34E034E33460
:10036000E534E734E934EB34EC34EE34F034F5348E
:02037000F8345F
:1003FE0082070034013401340134013401340234F3
:10040E000234033404340434053406340734083417
:10041E0009340A340C340D340E34103411341334C0
:10042E001434163418341A341C341E342034223446
:10043E002434263428342B342D342F3432343434AF
:10044E0037343A343C343F344234443447344A34FB
:10045E004D3450345334563459345C345F34623432
:10046E00653468346B346E347134743477347B3461
:10047E007E348134843487348A348D349034943489
:10048E0097349A349D34A034A334A634A934AC34B2
:10049E00AF34B234B534B734BA34BD34C034C234E8
:1004AE00C534C834CA34CD34CF34D234D434D6342F
:1004BE00D934DB34DD34DF34E134E334E534E7348E
:1004CE00E934EB34EC34EE34F034F134F234F43409
:1004DE00F534F634F734F934FA34FA34FB34FC34A8
:1004EE00FD34FD34FE34FE34FF34FF34FF34FF346C
:1004FE00FF34FF34FF34FF34FF34FF34FE34FE3458
:10050E00FD34FD34FC34FB34FA34FA34F934F73468
:10051E00F634F534F434F234F134F034EE34EC34A1
:10052E00EB34E934E734E534E334E134DF34DD34FD
:10053E00DB34D934D634D434D234CF34CD34CA3477
:10054E00C834C534C234C034BD34BA34B734B5340B
:10055E00B234AF34AC34A934A634A334A0349D34B1
:10056E009A349734943490348D348A348734843466
:10057E0081347E347B347734743471346E346B341E
:10058E006834653462345F345C34593456345334D1
:10059E0050344D344A344734443442343F343C347E
:1005AE003A343734343432342F342D342B34283417
:1005BE0026342434223420341E341C341A34183495
:1005CE00163414341334113410340E340D340C34F8
:1005DE000A34093408340734063405340434043438
:1005EE000334023402340134013401340134013451
:1005FE0000348207003400340034003400340034F8
:10060E00003400340034003400340034003400343C
:10061E00003400340034003400340034003400342C
:10062E000034003400340034003401340134013419
:10063E000134013401340134013401340134023403
:10064E0002340234023402340234023403340334EA
:10065E0003340334043404340434043405340034D1
:10066E0000340034003400340034003400340034DC
:10067E0001340134013401340134023402340234C1
:10068E00023403340334043404340534053406349C
:10069E000634073407340834093410341534203442
:1006AE00820701340234033404340534063407342B
:1006BE0008340934103415342034253430343534AC
:1006CE0040344534503455346034653470347534A8
:1006DE0080348534903495340034103420343034E2
:1006EE0040345034603470348034903400341034DC
:1006FE002034303440345034753400342534503482
:10070E007534003425345034753400345534603427
:10071E0065347034753480348534903495340034B7
:10072E0020344034603480340034253450347534F1
:10073E0000345034003450340034503400345034CB
:10074E000034503400340034003400340034BC2300
:10075E00D723E523D223F023DD23032415245324AA
:10076E006B2474248A249924B42B031783168801CE
:10077E0089010313831685018701880189010614F7
:10078E0006150616061786171514151515161517C0
:10079E009517811308000F178F160F160F140800E8
:1007AE00811281110115811401140800901210128A
:1007BE001014E1308F005C308E0008008B170B1781
:1007CE008B168B150C14161416151616161796175F
:1007DE000800031383128501870188018901A00196
:1007EE00A101A2010030A4000130A3000301A01654
:1007FE002017891009140800A2180D2C22180A2C93
:10080E00A011201408002010A01408002218122C89
:10081E00A010201508002011A0150800201E0800A9
:10082E0020182124A0182C2420192F24A0194B2481
:10083E00201208002308A10721087F3C03182A2C48
:10084E00FF30850008008501080023088507080091
:10085E00A01E3E2C2308050703183C2C85002308F8
:10086E00050703183C2C85000800A0120800230879
:10087E000502031C492C850023080502031C492C84
:10088E0085000800A01608008A018A142108FF219D
:10089E0085002308A1070800201F5E2CA41BA401BD
:1008AE002408343C03185D2C3430A40008002408BE
:1008BE00353C031C642C3530A4002408533C03182B
:1008CE006A2C5330A40008008A010A1424086221FD
:1008DE00A50024080B21A60008008A010A148A1418
:1008EE0024085723A70024080023A80028080F393E
:1008FE00AB00280E0F39AC0027080F39A900270EC0
:10090E000F39AA0008008A010A1429080021AD0037
:10091E002A080021AE002B080021AF002C08002170
:10092E00B0000800B118A72C3118A22C88112D0880
:10093E0087000814080008102E0887008814080085
:10094E003118AE2C88102F088700081508000811E2
:10095E003008870088150800C630B200B924B20BE3
:0E096E00B52C0800A530B300B30BBB2C08005D
:04400E00D420FF3F7C
:00000001FF
