:060000000A128A118C2B8C
:10000800F000030EF1000B1812200B1925200C1814
:100018002A20710E8300F00E700E0900031383125C
:1000280006181828A30A232806191C28A30323281E
:10003800861B2328A20A8501A101A01623280B10DC
:1000480008003D3081000B11B00A080024088E001A
:0A00580025088F000C102016080088
:1002000082073F3406345B344F3466346D347D34BA
:1002100007347F346F348207E134F034F534F83436
:10022000F934FA34FB34FC34FC34FC34FD34FE3451
:10023000FE34FE34FF34FF34FF34FF34FF34FF3428
:10024000FF34FF34FF34FF34FF34FF34FF34FF3416
:10025000FF34FF34FF34FF34FF34FF34FF34FF3406
:10026000FF34FF34FF34FF34FF34FF34FF34FF34F6
:10027000FF34FF34FF34FF34FF34FF34FF34FF34E6
:10028000FF34FF34FF34FF34FF34FF34FF34FF34D6
:10029000FF34FF34FF34FF34FF34FF34FF34FF34C6
:1002A00082075C34AE34C9345734DF34E4349F34CD
:1002B0002B349834EF34F5347734C634FA341F34A1
:1002C0003B345134633471347D3487348F34973404
:1002D0009D34A334A834AD34B134B834BE34C334FF
:1002E000C734CB34CE34D134D434D634D834DA34E1
:1002F000DC34DD34DF34E034E334E534E734E9344E
:10030000EB34EC34ED34EE34EF34F034F134F234D9
:10031000F334F434F534F634F734F834F934FA3489
:0A032000FB34FC34FD34FE34FF34DE
:1003FE0082070034013401340134013401340234F3
:10040E000234033404340434053406340734083417
:10041E0009340A340C340D340E34103411341334C0
:10042E001434163418341A341C341E342034223446
:10043E002434263428342B342D342F3432343434AF
:10044E0037343A343C343F344234443447344A34FB
:10045E004D3450345334563459345C345F34623432
:10046E00653468346B346E347134743477347B3461
:10047E007E348134843487348A348D349034943489
:10048E0097349A349D34A034A334A634A934AC34B2
:10049E00AF34B234B534B734BA34BD34C034C234E8
:1004AE00C534C834CA34CD34CF34D234D434D6342F
:1004BE00D934DB34DD34DF34E134E334E534E7348E
:1004CE00E934EB34EC34EE34F034F134F234F43409
:1004DE00F534F634F734F934FA34FA34FB34FC34A8
:1004EE00FD34FD34FE34FE34FF34FF34FF34FF346C
:1004FE00FF34FF34FF34FF34FF34FF34FE34FE3458
:10050E00FD34FD34FC34FB34FA34FA34F934F73468
:10051E00F634F534F434F234F134F034EE34EC34A1
:10052E00EB34E934E734E534E334E134DF34DD34FD
:10053E00DB34D934D634D434D234CF34CD34CA3477
:10054E00C834C534C234C034BD34BA34B734B5340B
:10055E00B234AF34AC34A934A634A334A0349D34B1
:10056E009A349734943490348D348A348734843466
:10057E0081347E347B347734743471346E346B341E
:10058E006834653462345F345C34593456345334D1
:10059E0050344D344A344734443442343F343C347E
:1005AE003A343734343432342F342D342B34283417
:1005BE0026342434223420341E341C341A34183495
:1005CE00163414341334113410340E340D340C34F8
:1005DE000A34093408340734063405340434043438
:1005EE000334023402340134013401340134013451
:1005FE0000348207003400340034003400340034F8
:10060E00003400340034003400340034003400343C
:10061E00003400340034003400340034003400342C
:10062E000034003400340034003401340134013419
:10063E000134013401340134013401340134023403
:10064E0002340234023402340234023403340334EA
:10065E0003340334043404340434043405340534CC
:10066E00063406340734073408340934103412348F
:10067E001434163420342734403480340800820772
:10068E000134023403340434053406340734083498
:10069E000934103415342034253430343534403494
:1006AE004534503455346034653470347534803488
:1006BE008534903495340034103420343034403442
:1006CE00503460347034803490340034103420341C
:1006DE00303440345034753400342534503475344D
:1006EE0000342534503475340034503400345034D2
:1006FE0000345034003400340034003400340034FC
:10070E00003400340034003408009923B423C2238B
:10071E00AF23CD23BA23DB23ED231D242A2440242B
:10072E004F24922B03178316880189010313831616
:10073E00850187018801890106140615061606171C
:10074E00861715141515151615179517811308000C
:10075E000F178F160F160F14080081128111011535
:10076E00811401140800901210121014E1308F0041
:10077E005C308E0008008B170B178B168B150C1424
:10078E00161416151616161796170800031383124D
:10079E008501870188018901A001A101A201003014
:1007AE00A3000301A0160800A218E52B2218E22BC5
:1007BE00A011201408002010A01408002218EA2B03
:1007CE00A010201508002011A0150800201E0800FA
:1007DE002018F923A018032420190524A019162483
:1007EE0020120800A10A2108803C0318012CFF30BA
:1007FE008500080085010800850A0800A01E0F2C40
:10080E00850A050A03190D2C85000800A0120800A0
:10081E0085030319142C85030800A01608008A010D
:10082E008A142108FF218500A10A08002308433CF1
:10083E00031CA3018A010A1423085021A4002308D3
:10084E000B21A50008008A010A148A1423084623E6
:10085E00A60023080023A70027080F39AA00270E99
:10086E000F39AB0026080F39A800260E0F39A90044
:10087E0008008A010A1428080021AC00290800216A
:10088E00AD002A080021AE002B080021AF000800A1
:10089E00B0185D2C3018582C88112C0887000814BD
:1008AE00080008102D088700881408003018642CE2
:1008BE0088102E0887000815080008112F088700D9
:0408CE008815080081
:04400E00D420FF3F7C
:00000001FF
